{
  "_format": "hh-sol-artifact-1",
  "contractName": "CryptoDevs",
  "sourceName": "contracts/CryptoDevs.sol",
  "abi": [
    {
      "inputs": [
        {
          "internalType": "string",
          "name": "baseURI",
          "type": "string"
        },
        {
          "internalType": "address",
          "name": "whitelistContract",
          "type": "address"
        }
      ],
      "stateMutability": "nonpayable",
      "type": "constructor"
    },
    {
      "anonymous": false,
      "inputs": [
        {
          "indexed": true,
          "internalType": "address",
          "name": "owner",
          "type": "address"
        },
        {
          "indexed": true,
          "internalType": "address",
          "name": "approved",
          "type": "address"
        },
        {
          "indexed": true,
          "internalType": "uint256",
          "name": "tokenId",
          "type": "uint256"
        }
      ],
      "name": "Approval",
      "type": "event"
    },
    {
      "anonymous": false,
      "inputs": [
        {
          "indexed": true,
          "internalType": "address",
          "name": "owner",
          "type": "address"
        },
        {
          "indexed": true,
          "internalType": "address",
          "name": "operator",
          "type": "address"
        },
        {
          "indexed": false,
          "internalType": "bool",
          "name": "approved",
          "type": "bool"
        }
      ],
      "name": "ApprovalForAll",
      "type": "event"
    },
    {
      "anonymous": false,
      "inputs": [
        {
          "indexed": true,
          "internalType": "address",
          "name": "previousOwner",
          "type": "address"
        },
        {
          "indexed": true,
          "internalType": "address",
          "name": "newOwner",
          "type": "address"
        }
      ],
      "name": "OwnershipTransferred",
      "type": "event"
    },
    {
      "anonymous": false,
      "inputs": [
        {
          "indexed": true,
          "internalType": "address",
          "name": "from",
          "type": "address"
        },
        {
          "indexed": true,
          "internalType": "address",
          "name": "to",
          "type": "address"
        },
        {
          "indexed": true,
          "internalType": "uint256",
          "name": "tokenId",
          "type": "uint256"
        }
      ],
      "name": "Transfer",
      "type": "event"
    },
    {
      "stateMutability": "payable",
      "type": "fallback"
    },
    {
      "inputs": [],
      "name": "_baseTokenURI",
      "outputs": [
        {
          "internalType": "string",
          "name": "",
          "type": "string"
        }
      ],
      "stateMutability": "view",
      "type": "function"
    },
    {
      "inputs": [],
      "name": "_paused",
      "outputs": [
        {
          "internalType": "bool",
          "name": "",
          "type": "bool"
        }
      ],
      "stateMutability": "view",
      "type": "function"
    },
    {
      "inputs": [],
      "name": "_price",
      "outputs": [
        {
          "internalType": "uint256",
          "name": "",
          "type": "uint256"
        }
      ],
      "stateMutability": "view",
      "type": "function"
    },
    {
      "inputs": [
        {
          "internalType": "address",
          "name": "to",
          "type": "address"
        },
        {
          "internalType": "uint256",
          "name": "tokenId",
          "type": "uint256"
        }
      ],
      "name": "approve",
      "outputs": [],
      "stateMutability": "nonpayable",
      "type": "function"
    },
    {
      "inputs": [
        {
          "internalType": "address",
          "name": "owner",
          "type": "address"
        }
      ],
      "name": "balanceOf",
      "outputs": [
        {
          "internalType": "uint256",
          "name": "",
          "type": "uint256"
        }
      ],
      "stateMutability": "view",
      "type": "function"
    },
    {
      "inputs": [
        {
          "internalType": "uint256",
          "name": "tokenId",
          "type": "uint256"
        }
      ],
      "name": "getApproved",
      "outputs": [
        {
          "internalType": "address",
          "name": "",
          "type": "address"
        }
      ],
      "stateMutability": "view",
      "type": "function"
    },
    {
      "inputs": [
        {
          "internalType": "address",
          "name": "owner",
          "type": "address"
        },
        {
          "internalType": "address",
          "name": "operator",
          "type": "address"
        }
      ],
      "name": "isApprovedForAll",
      "outputs": [
        {
          "internalType": "bool",
          "name": "",
          "type": "bool"
        }
      ],
      "stateMutability": "view",
      "type": "function"
    },
    {
      "inputs": [],
      "name": "maxTokenIds",
      "outputs": [
        {
          "internalType": "uint256",
          "name": "",
          "type": "uint256"
        }
      ],
      "stateMutability": "view",
      "type": "function"
    },
    {
      "inputs": [],
      "name": "mint",
      "outputs": [],
      "stateMutability": "payable",
      "type": "function"
    },
    {
      "inputs": [],
      "name": "name",
      "outputs": [
        {
          "internalType": "string",
          "name": "",
          "type": "string"
        }
      ],
      "stateMutability": "view",
      "type": "function"
    },
    {
      "inputs": [],
      "name": "owner",
      "outputs": [
        {
          "internalType": "address",
          "name": "",
          "type": "address"
        }
      ],
      "stateMutability": "view",
      "type": "function"
    },
    {
      "inputs": [
        {
          "internalType": "uint256",
          "name": "tokenId",
          "type": "uint256"
        }
      ],
      "name": "ownerOf",
      "outputs": [
        {
          "internalType": "address",
          "name": "",
          "type": "address"
        }
      ],
      "stateMutability": "view",
      "type": "function"
    },
    {
      "inputs": [],
      "name": "presaleEnded",
      "outputs": [
        {
          "internalType": "uint256",
          "name": "",
          "type": "uint256"
        }
      ],
      "stateMutability": "view",
      "type": "function"
    },
    {
      "inputs": [],
      "name": "presaleMint",
      "outputs": [],
      "stateMutability": "payable",
      "type": "function"
    },
    {
      "inputs": [],
      "name": "presaleStarted",
      "outputs": [
        {
          "internalType": "bool",
          "name": "",
          "type": "bool"
        }
      ],
      "stateMutability": "view",
      "type": "function"
    },
    {
      "inputs": [],
      "name": "renounceOwnership",
      "outputs": [],
      "stateMutability": "nonpayable",
      "type": "function"
    },
    {
      "inputs": [
        {
          "internalType": "address",
          "name": "from",
          "type": "address"
        },
        {
          "internalType": "address",
          "name": "to",
          "type": "address"
        },
        {
          "internalType": "uint256",
          "name": "tokenId",
          "type": "uint256"
        }
      ],
      "name": "safeTransferFrom",
      "outputs": [],
      "stateMutability": "nonpayable",
      "type": "function"
    },
    {
      "inputs": [
        {
          "internalType": "address",
          "name": "from",
          "type": "address"
        },
        {
          "internalType": "address",
          "name": "to",
          "type": "address"
        },
        {
          "internalType": "uint256",
          "name": "tokenId",
          "type": "uint256"
        },
        {
          "internalType": "bytes",
          "name": "_data",
          "type": "bytes"
        }
      ],
      "name": "safeTransferFrom",
      "outputs": [],
      "stateMutability": "nonpayable",
      "type": "function"
    },
    {
      "inputs": [
        {
          "internalType": "address",
          "name": "operator",
          "type": "address"
        },
        {
          "internalType": "bool",
          "name": "approved",
          "type": "bool"
        }
      ],
      "name": "setApprovalForAll",
      "outputs": [],
      "stateMutability": "nonpayable",
      "type": "function"
    },
    {
      "inputs": [
        {
          "internalType": "bool",
          "name": "paused",
          "type": "bool"
        }
      ],
      "name": "setPaused",
      "outputs": [],
      "stateMutability": "nonpayable",
      "type": "function"
    },
    {
      "inputs": [],
      "name": "startPresale",
      "outputs": [],
      "stateMutability": "nonpayable",
      "type": "function"
    },
    {
      "inputs": [
        {
          "internalType": "bytes4",
          "name": "interfaceId",
          "type": "bytes4"
        }
      ],
      "name": "supportsInterface",
      "outputs": [
        {
          "internalType": "bool",
          "name": "",
          "type": "bool"
        }
      ],
      "stateMutability": "view",
      "type": "function"
    },
    {
      "inputs": [],
      "name": "symbol",
      "outputs": [
        {
          "internalType": "string",
          "name": "",
          "type": "string"
        }
      ],
      "stateMutability": "view",
      "type": "function"
    },
    {
      "inputs": [
        {
          "internalType": "uint256",
          "name": "index",
          "type": "uint256"
        }
      ],
      "name": "tokenByIndex",
      "outputs": [
        {
          "internalType": "uint256",
          "name": "",
          "type": "uint256"
        }
      ],
      "stateMutability": "view",
      "type": "function"
    },
    {
      "inputs": [],
      "name": "tokenIds",
      "outputs": [
        {
          "internalType": "uint256",
          "name": "",
          "type": "uint256"
        }
      ],
      "stateMutability": "view",
      "type": "function"
    },
    {
      "inputs": [
        {
          "internalType": "address",
          "name": "owner",
          "type": "address"
        },
        {
          "internalType": "uint256",
          "name": "index",
          "type": "uint256"
        }
      ],
      "name": "tokenOfOwnerByIndex",
      "outputs": [
        {
          "internalType": "uint256",
          "name": "",
          "type": "uint256"
        }
      ],
      "stateMutability": "view",
      "type": "function"
    },
    {
      "inputs": [
        {
          "internalType": "uint256",
          "name": "tokenId",
          "type": "uint256"
        }
      ],
      "name": "tokenURI",
      "outputs": [
        {
          "internalType": "string",
          "name": "",
          "type": "string"
        }
      ],
      "stateMutability": "view",
      "type": "function"
    },
    {
      "inputs": [],
      "name": "totalSupply",
      "outputs": [
        {
          "internalType": "uint256",
          "name": "",
          "type": "uint256"
        }
      ],
      "stateMutability": "view",
      "type": "function"
    },
    {
      "inputs": [
        {
          "internalType": "address",
          "name": "from",
          "type": "address"
        },
        {
          "internalType": "address",
          "name": "to",
          "type": "address"
        },
        {
          "internalType": "uint256",
          "name": "tokenId",
          "type": "uint256"
        }
      ],
      "name": "transferFrom",
      "outputs": [],
      "stateMutability": "nonpayable",
      "type": "function"
    },
    {
      "inputs": [
        {
          "internalType": "address",
          "name": "newOwner",
          "type": "address"
        }
      ],
      "name": "transferOwnership",
      "outputs": [],
      "stateMutability": "nonpayable",
      "type": "function"
    },
    {
      "inputs": [],
      "name": "whitelist",
      "outputs": [
        {
          "internalType": "contract IWhitelist",
          "name": "",
          "type": "address"
        }
      ],
      "stateMutability": "view",
      "type": "function"
    },
    {
      "inputs": [],
      "name": "withdraw",
      "outputs": [],
      "stateMutability": "nonpayable",
      "type": "function"
    },
    {
      "stateMutability": "payable",
      "type": "receive"
    }
  ],
  "bytecode": "0x6080604052662386f26fc10000600c556014600e553480156200002157600080fd5b50604051620047f7380380620047f7833981810160405281019062000047919062000370565b6040518060400160405280600b81526020017f43727970746f20446576730000000000000000000000000000000000000000008152506040518060400160405280600281526020017f43440000000000000000000000000000000000000000000000000000000000008152508160009080519060200190620000cb92919062000237565b508060019080519060200190620000e492919062000237565b50505062000107620000fb6200016960201b60201c565b6200017160201b60201c565b81600b90805190602001906200011f92919062000237565b5080601060006101000a81548173ffffffffffffffffffffffffffffffffffffffff021916908373ffffffffffffffffffffffffffffffffffffffff160217905550505062000588565b600033905090565b6000600a60009054906101000a900473ffffffffffffffffffffffffffffffffffffffff16905081600a60006101000a81548173ffffffffffffffffffffffffffffffffffffffff021916908373ffffffffffffffffffffffffffffffffffffffff1602179055508173ffffffffffffffffffffffffffffffffffffffff168173ffffffffffffffffffffffffffffffffffffffff167f8be0079c531659141344cd1fd0a4f28419497f9722a3daafe3b4186f6b6457e060405160405180910390a35050565b828054620002459062000493565b90600052602060002090601f016020900481019282620002695760008555620002b5565b82601f106200028457805160ff1916838001178555620002b5565b82800160010185558215620002b5579182015b82811115620002b457825182559160200191906001019062000297565b5b509050620002c49190620002c8565b5090565b5b80821115620002e3576000816000905550600101620002c9565b5090565b6000620002fe620002f884620003f3565b620003ca565b9050828152602081018484840111156200031757600080fd5b620003248482856200045d565b509392505050565b6000815190506200033d816200056e565b92915050565b600082601f8301126200035557600080fd5b815162000367848260208601620002e7565b91505092915050565b600080604083850312156200038457600080fd5b600083015167ffffffffffffffff8111156200039f57600080fd5b620003ad8582860162000343565b9250506020620003c0858286016200032c565b9150509250929050565b6000620003d6620003e9565b9050620003e48282620004c9565b919050565b6000604051905090565b600067ffffffffffffffff8211156200041157620004106200052e565b5b6200041c826200055d565b9050602081019050919050565b600062000436826200043d565b9050919050565b600073ffffffffffffffffffffffffffffffffffffffff82169050919050565b60005b838110156200047d57808201518184015260208101905062000460565b838111156200048d576000848401525b50505050565b60006002820490506001821680620004ac57607f821691505b60208210811415620004c357620004c2620004ff565b5b50919050565b620004d4826200055d565b810181811067ffffffffffffffff82111715620004f657620004f56200052e565b5b80604052505050565b7f4e487b7100000000000000000000000000000000000000000000000000000000600052602260045260246000fd5b7f4e487b7100000000000000000000000000000000000000000000000000000000600052604160045260246000fd5b6000601f19601f8301169050919050565b620005798162000429565b81146200058557600080fd5b50565b61425f80620005986000396000f3fe6080604052600436106101e75760003560e01c806359533d6c1161010257806395d89b4111610095578063cfc86f7b11610064578063cfc86f7b14610698578063e580b2b0146106c3578063e985e9c5146106ee578063f2fde38b1461072b576101ee565b806395d89b41146105de578063a22cb46514610609578063b88d4fde14610632578063c87b56dd1461065b576101ee565b8063714cff56116100d1578063714cff5614610546578063715018a6146105715780638da5cb5b1461058857806393e59dc1146105b3576101ee565b806359533d6c146104975780635f769621146104a15780636352211e146104cc57806370a0823114610509576101ee565b806316c61ccc1161017a5780632f745c59116101495780632f745c59146103dd5780633ccfd60b1461041a57806342842e0e146104315780634f6ccce71461045a576101ee565b806316c61ccc1461033357806318160ddd1461035e578063235b6ea11461038957806323b872dd146103b4576101ee565b8063081812fc116101b6578063081812fc1461029a578063095ea7b3146102d75780631249c58b1461030057806316c38b3c1461030a576101ee565b806301ffc9a7146101f057806304549d6f1461022d57806304c98b2b1461025857806306fdde031461026f576101ee565b366101ee57005b005b3480156101fc57600080fd5b5061021760048036038101906102129190612e4b565b610754565b60405161022491906133f6565b60405180910390f35b34801561023957600080fd5b506102426107ce565b60405161024f91906133f6565b60405180910390f35b34801561026457600080fd5b5061026d6107e1565b005b34801561027b57600080fd5b5061028461088e565b604051610291919061342c565b60405180910390f35b3480156102a657600080fd5b506102c160048036038101906102bc9190612e9d565b610920565b6040516102ce919061338f565b60405180910390f35b3480156102e357600080fd5b506102fe60048036038101906102f99190612dbd565b6109a5565b005b610308610abd565b005b34801561031657600080fd5b50610331600480360381019061032c9190612df9565b610c1c565b005b34801561033f57600080fd5b50610348610cb5565b60405161035591906133f6565b60405180910390f35b34801561036a57600080fd5b50610373610cc8565b604051610380919061378e565b60405180910390f35b34801561039557600080fd5b5061039e610cd5565b6040516103ab919061378e565b60405180910390f35b3480156103c057600080fd5b506103db60048036038101906103d69190612cb7565b610cdb565b005b3480156103e957600080fd5b5061040460048036038101906103ff9190612dbd565b610d3b565b604051610411919061378e565b60405180910390f35b34801561042657600080fd5b5061042f610de0565b005b34801561043d57600080fd5b5061045860048036038101906104539190612cb7565b610f1e565b005b34801561046657600080fd5b50610481600480360381019061047c9190612e9d565b610f3e565b60405161048e919061378e565b60405180910390f35b61049f610fd5565b005b3480156104ad57600080fd5b506104b661121e565b6040516104c3919061378e565b60405180910390f35b3480156104d857600080fd5b506104f360048036038101906104ee9190612e9d565b611224565b604051610500919061338f565b60405180910390f35b34801561051557600080fd5b50610530600480360381019061052b9190612c52565b6112d6565b60405161053d919061378e565b60405180910390f35b34801561055257600080fd5b5061055b61138e565b604051610568919061378e565b60405180910390f35b34801561057d57600080fd5b50610586611394565b005b34801561059457600080fd5b5061059d61141c565b6040516105aa919061338f565b60405180910390f35b3480156105bf57600080fd5b506105c8611446565b6040516105d59190613411565b60405180910390f35b3480156105ea57600080fd5b506105f361146c565b604051610600919061342c565b60405180910390f35b34801561061557600080fd5b50610630600480360381019061062b9190612d81565b6114fe565b005b34801561063e57600080fd5b5061065960048036038101906106549190612d06565b611514565b005b34801561066757600080fd5b50610682600480360381019061067d9190612e9d565b611576565b60405161068f919061342c565b60405180910390f35b3480156106a457600080fd5b506106ad61161d565b6040516106ba919061342c565b60405180910390f35b3480156106cf57600080fd5b506106d86116ab565b6040516106e5919061378e565b60405180910390f35b3480156106fa57600080fd5b5061071560048036038101906107109190612c7b565b6116b1565b60405161072291906133f6565b60405180910390f35b34801561073757600080fd5b50610752600480360381019061074d9190612c52565b611745565b005b60007f780e9d63000000000000000000000000000000000000000000000000000000007bffffffffffffffffffffffffffffffffffffffffffffffffffffffff1916827bffffffffffffffffffffffffffffffffffffffffffffffffffffffff191614806107c757506107c68261183d565b5b9050919050565b601060149054906101000a900460ff1681565b6107e961191f565b73ffffffffffffffffffffffffffffffffffffffff1661080761141c565b73ffffffffffffffffffffffffffffffffffffffff161461085d576040517f08c379a00000000000000000000000000000000000000000000000000000000081526004016108549061368e565b60405180910390fd5b6001601060146101000a81548160ff02191690831515021790555061012c42610886919061384d565b601181905550565b60606000805461089d906139e2565b80601f01602080910402602001604051908101604052809291908181526020018280546108c9906139e2565b80156109165780601f106108eb57610100808354040283529160200191610916565b820191906000526020600020905b8154815290600101906020018083116108f957829003601f168201915b5050505050905090565b600061092b82611927565b61096a576040517f08c379a00000000000000000000000000000000000000000000000000000000081526004016109619061364e565b60405180910390fd5b6004600083815260200190815260200160002060009054906101000a900473ffffffffffffffffffffffffffffffffffffffff169050919050565b60006109b082611224565b90508073ffffffffffffffffffffffffffffffffffffffff168373ffffffffffffffffffffffffffffffffffffffff161415610a21576040517f08c379a0000000000000000000000000000000000000000000000000000000008152600401610a18906136ce565b60405180910390fd5b8073ffffffffffffffffffffffffffffffffffffffff16610a4061191f565b73ffffffffffffffffffffffffffffffffffffffff161480610a6f5750610a6e81610a6961191f565b6116b1565b5b610aae576040517f08c379a0000000000000000000000000000000000000000000000000000000008152600401610aa59061358e565b60405180910390fd5b610ab88383611993565b505050565b600d60009054906101000a900460ff1615610b0d576040517f08c379a0000000000000000000000000000000000000000000000000000000008152600401610b049061356e565b60405180910390fd5b601060149054906101000a900460ff168015610b2a575060115442115b610b69576040517f08c379a0000000000000000000000000000000000000000000000000000000008152600401610b60906135ee565b60405180910390fd5b600e54600f5410610baf576040517f08c379a0000000000000000000000000000000000000000000000000000000008152600401610ba6906136ee565b60405180910390fd5b600c54341015610bf4576040517f08c379a0000000000000000000000000000000000000000000000000000000008152600401610beb9061370e565b60405180910390fd5b6001600f6000828254610c07919061384d565b92505081905550610c1a33600f54611a4c565b565b610c2461191f565b73ffffffffffffffffffffffffffffffffffffffff16610c4261141c565b73ffffffffffffffffffffffffffffffffffffffff1614610c98576040517f08c379a0000000000000000000000000000000000000000000000000000000008152600401610c8f9061368e565b60405180910390fd5b80600d60006101000a81548160ff02191690831515021790555050565b600d60009054906101000a900460ff1681565b6000600880549050905090565b600c5481565b610cec610ce661191f565b82611a6a565b610d2b576040517f08c379a0000000000000000000000000000000000000000000000000000000008152600401610d229061372e565b60405180910390fd5b610d36838383611b48565b505050565b6000610d46836112d6565b8210610d87576040517f08c379a0000000000000000000000000000000000000000000000000000000008152600401610d7e9061344e565b60405180910390fd5b600660008473ffffffffffffffffffffffffffffffffffffffff1673ffffffffffffffffffffffffffffffffffffffff168152602001908152602001600020600083815260200190815260200160002054905092915050565b610de861191f565b73ffffffffffffffffffffffffffffffffffffffff16610e0661141c565b73ffffffffffffffffffffffffffffffffffffffff1614610e5c576040517f08c379a0000000000000000000000000000000000000000000000000000000008152600401610e539061368e565b60405180910390fd5b6000610e6661141c565b9050600047905060008273ffffffffffffffffffffffffffffffffffffffff1682604051610e939061337a565b60006040518083038185875af1925050503d8060008114610ed0576040519150601f19603f3d011682016040523d82523d6000602084013e610ed5565b606091505b5050905080610f19576040517f08c379a0000000000000000000000000000000000000000000000000000000008152600401610f109061376e565b60405180910390fd5b505050565b610f3983838360405180602001604052806000815250611514565b505050565b6000610f48610cc8565b8210610f89576040517f08c379a0000000000000000000000000000000000000000000000000000000008152600401610f809061374e565b60405180910390fd5b60088281548110610fc3577f4e487b7100000000000000000000000000000000000000000000000000000000600052603260045260246000fd5b90600052602060002001549050919050565b600d60009054906101000a900460ff1615611025576040517f08c379a000000000000000000000000000000000000000000000000000000000815260040161101c9061356e565b60405180910390fd5b601060149054906101000a900460ff168015611042575060115442105b611081576040517f08c379a00000000000000000000000000000000000000000000000000000000081526004016110789061366e565b60405180910390fd5b601060009054906101000a900473ffffffffffffffffffffffffffffffffffffffff1673ffffffffffffffffffffffffffffffffffffffff166306c933d8336040518263ffffffff1660e01b81526004016110dc919061338f565b60206040518083038186803b1580156110f457600080fd5b505afa158015611108573d6000803e3d6000fd5b505050506040513d601f19601f8201168201806040525081019061112c9190612e22565b61116b576040517f08c379a00000000000000000000000000000000000000000000000000000000081526004016111629061362e565b60405180910390fd5b600e54600f54106111b1576040517f08c379a00000000000000000000000000000000000000000000000000000000081526004016111a89061352e565b60405180910390fd5b600c543410156111f6576040517f08c379a00000000000000000000000000000000000000000000000000000000081526004016111ed9061370e565b60405180910390fd5b6001600f6000828254611209919061384d565b9250508190555061121c33600f54611a4c565b565b600e5481565b6000806002600084815260200190815260200160002060009054906101000a900473ffffffffffffffffffffffffffffffffffffffff169050600073ffffffffffffffffffffffffffffffffffffffff168173ffffffffffffffffffffffffffffffffffffffff1614156112cd576040517f08c379a00000000000000000000000000000000000000000000000000000000081526004016112c4906135ce565b60405180910390fd5b80915050919050565b60008073ffffffffffffffffffffffffffffffffffffffff168273ffffffffffffffffffffffffffffffffffffffff161415611347576040517f08c379a000000000000000000000000000000000000000000000000000000000815260040161133e906135ae565b60405180910390fd5b600360008373ffffffffffffffffffffffffffffffffffffffff1673ffffffffffffffffffffffffffffffffffffffff168152602001908152602001600020549050919050565b600f5481565b61139c61191f565b73ffffffffffffffffffffffffffffffffffffffff166113ba61141c565b73ffffffffffffffffffffffffffffffffffffffff1614611410576040517f08c379a00000000000000000000000000000000000000000000000000000000081526004016114079061368e565b60405180910390fd5b61141a6000611daf565b565b6000600a60009054906101000a900473ffffffffffffffffffffffffffffffffffffffff16905090565b601060009054906101000a900473ffffffffffffffffffffffffffffffffffffffff1681565b60606001805461147b906139e2565b80601f01602080910402602001604051908101604052809291908181526020018280546114a7906139e2565b80156114f45780601f106114c9576101008083540402835291602001916114f4565b820191906000526020600020905b8154815290600101906020018083116114d757829003601f168201915b5050505050905090565b61151061150961191f565b8383611e75565b5050565b61152561151f61191f565b83611a6a565b611564576040517f08c379a000000000000000000000000000000000000000000000000000000000815260040161155b9061372e565b60405180910390fd5b61157084848484611fe2565b50505050565b606061158182611927565b6115c0576040517f08c379a00000000000000000000000000000000000000000000000000000000081526004016115b7906136ae565b60405180910390fd5b60006115ca61203e565b905060008151116115ea5760405180602001604052806000815250611615565b806115f4846120d0565b604051602001611605929190613356565b6040516020818303038152906040525b915050919050565b600b805461162a906139e2565b80601f0160208091040260200160405190810160405280929190818152602001828054611656906139e2565b80156116a35780601f10611678576101008083540402835291602001916116a3565b820191906000526020600020905b81548152906001019060200180831161168657829003601f168201915b505050505081565b60115481565b6000600560008473ffffffffffffffffffffffffffffffffffffffff1673ffffffffffffffffffffffffffffffffffffffff16815260200190815260200160002060008373ffffffffffffffffffffffffffffffffffffffff1673ffffffffffffffffffffffffffffffffffffffff16815260200190815260200160002060009054906101000a900460ff16905092915050565b61174d61191f565b73ffffffffffffffffffffffffffffffffffffffff1661176b61141c565b73ffffffffffffffffffffffffffffffffffffffff16146117c1576040517f08c379a00000000000000000000000000000000000000000000000000000000081526004016117b89061368e565b60405180910390fd5b600073ffffffffffffffffffffffffffffffffffffffff168173ffffffffffffffffffffffffffffffffffffffff161415611831576040517f08c379a00000000000000000000000000000000000000000000000000000000081526004016118289061348e565b60405180910390fd5b61183a81611daf565b50565b60007f80ac58cd000000000000000000000000000000000000000000000000000000007bffffffffffffffffffffffffffffffffffffffffffffffffffffffff1916827bffffffffffffffffffffffffffffffffffffffffffffffffffffffff1916148061190857507f5b5e139f000000000000000000000000000000000000000000000000000000007bffffffffffffffffffffffffffffffffffffffffffffffffffffffff1916827bffffffffffffffffffffffffffffffffffffffffffffffffffffffff1916145b8061191857506119178261227d565b5b9050919050565b600033905090565b60008073ffffffffffffffffffffffffffffffffffffffff166002600084815260200190815260200160002060009054906101000a900473ffffffffffffffffffffffffffffffffffffffff1673ffffffffffffffffffffffffffffffffffffffff1614159050919050565b816004600083815260200190815260200160002060006101000a81548173ffffffffffffffffffffffffffffffffffffffff021916908373ffffffffffffffffffffffffffffffffffffffff160217905550808273ffffffffffffffffffffffffffffffffffffffff16611a0683611224565b73ffffffffffffffffffffffffffffffffffffffff167f8c5be1e5ebec7d5bd14f71427d1e84f3dd0314c0f7b2291e5b200ac8c7c3b92560405160405180910390a45050565b611a668282604051806020016040528060008152506122e7565b5050565b6000611a7582611927565b611ab4576040517f08c379a0000000000000000000000000000000000000000000000000000000008152600401611aab9061354e565b60405180910390fd5b6000611abf83611224565b90508073ffffffffffffffffffffffffffffffffffffffff168473ffffffffffffffffffffffffffffffffffffffff161480611b2e57508373ffffffffffffffffffffffffffffffffffffffff16611b1684610920565b73ffffffffffffffffffffffffffffffffffffffff16145b80611b3f5750611b3e81856116b1565b5b91505092915050565b8273ffffffffffffffffffffffffffffffffffffffff16611b6882611224565b73ffffffffffffffffffffffffffffffffffffffff1614611bbe576040517f08c379a0000000000000000000000000000000000000000000000000000000008152600401611bb5906134ae565b60405180910390fd5b600073ffffffffffffffffffffffffffffffffffffffff168273ffffffffffffffffffffffffffffffffffffffff161415611c2e576040517f08c379a0000000000000000000000000000000000000000000000000000000008152600401611c25906134ee565b60405180910390fd5b611c39838383612342565b611c44600082611993565b6001600360008573ffffffffffffffffffffffffffffffffffffffff1673ffffffffffffffffffffffffffffffffffffffff1681526020019081526020016000206000828254611c9491906138d4565b925050819055506001600360008473ffffffffffffffffffffffffffffffffffffffff1673ffffffffffffffffffffffffffffffffffffffff1681526020019081526020016000206000828254611ceb919061384d565b92505081905550816002600083815260200190815260200160002060006101000a81548173ffffffffffffffffffffffffffffffffffffffff021916908373ffffffffffffffffffffffffffffffffffffffff160217905550808273ffffffffffffffffffffffffffffffffffffffff168473ffffffffffffffffffffffffffffffffffffffff167fddf252ad1be2c89b69c2b068fc378daa952ba7f163c4a11628f55a4df523b3ef60405160405180910390a4611daa838383612456565b505050565b6000600a60009054906101000a900473ffffffffffffffffffffffffffffffffffffffff16905081600a60006101000a81548173ffffffffffffffffffffffffffffffffffffffff021916908373ffffffffffffffffffffffffffffffffffffffff1602179055508173ffffffffffffffffffffffffffffffffffffffff168173ffffffffffffffffffffffffffffffffffffffff167f8be0079c531659141344cd1fd0a4f28419497f9722a3daafe3b4186f6b6457e060405160405180910390a35050565b8173ffffffffffffffffffffffffffffffffffffffff168373ffffffffffffffffffffffffffffffffffffffff161415611ee4576040517f08c379a0000000000000000000000000000000000000000000000000000000008152600401611edb9061350e565b60405180910390fd5b80600560008573ffffffffffffffffffffffffffffffffffffffff1673ffffffffffffffffffffffffffffffffffffffff16815260200190815260200160002060008473ffffffffffffffffffffffffffffffffffffffff1673ffffffffffffffffffffffffffffffffffffffff16815260200190815260200160002060006101000a81548160ff0219169083151502179055508173ffffffffffffffffffffffffffffffffffffffff168373ffffffffffffffffffffffffffffffffffffffff167f17307eab39ab6107e8899845ad3d59bd9653f200f220920489ca2b5937696c3183604051611fd591906133f6565b60405180910390a3505050565b611fed848484611b48565b611ff98484848461245b565b612038576040517f08c379a000000000000000000000000000000000000000000000000000000000815260040161202f9061346e565b60405180910390fd5b50505050565b6060600b805461204d906139e2565b80601f0160208091040260200160405190810160405280929190818152602001828054612079906139e2565b80156120c65780601f1061209b576101008083540402835291602001916120c6565b820191906000526020600020905b8154815290600101906020018083116120a957829003601f168201915b5050505050905090565b60606000821415612118576040518060400160405280600181526020017f30000000000000000000000000000000000000000000000000000000000000008152509050612278565b600082905060005b6000821461214a57808061213390613a45565b915050600a8261214391906138a3565b9150612120565b60008167ffffffffffffffff81111561218c577f4e487b7100000000000000000000000000000000000000000000000000000000600052604160045260246000fd5b6040519080825280601f01601f1916602001820160405280156121be5781602001600182028036833780820191505090505b5090505b60008514612271576001826121d791906138d4565b9150600a856121e69190613a8e565b60306121f2919061384d565b60f81b81838151811061222e577f4e487b7100000000000000000000000000000000000000000000000000000000600052603260045260246000fd5b60200101907effffffffffffffffffffffffffffffffffffffffffffffffffffffffffffff1916908160001a905350600a8561226a91906138a3565b94506121c2565b8093505050505b919050565b60007f01ffc9a7000000000000000000000000000000000000000000000000000000007bffffffffffffffffffffffffffffffffffffffffffffffffffffffff1916827bffffffffffffffffffffffffffffffffffffffffffffffffffffffff1916149050919050565b6122f183836125f2565b6122fe600084848461245b565b61233d576040517f08c379a00000000000000000000000000000000000000000000000000000000081526004016123349061346e565b60405180910390fd5b505050565b61234d8383836127cc565b600073ffffffffffffffffffffffffffffffffffffffff168373ffffffffffffffffffffffffffffffffffffffff1614156123905761238b816127d1565b6123cf565b8173ffffffffffffffffffffffffffffffffffffffff168373ffffffffffffffffffffffffffffffffffffffff16146123ce576123cd838261281a565b5b5b600073ffffffffffffffffffffffffffffffffffffffff168273ffffffffffffffffffffffffffffffffffffffff1614156124125761240d81612987565b612451565b8273ffffffffffffffffffffffffffffffffffffffff168273ffffffffffffffffffffffffffffffffffffffff16146124505761244f8282612aca565b5b5b505050565b505050565b600061247c8473ffffffffffffffffffffffffffffffffffffffff16612b49565b156125e5578373ffffffffffffffffffffffffffffffffffffffff1663150b7a026124a561191f565b8786866040518563ffffffff1660e01b81526004016124c794939291906133aa565b602060405180830381600087803b1580156124e157600080fd5b505af192505050801561251257506040513d601f19601f8201168201806040525081019061250f9190612e74565b60015b612595573d8060008114612542576040519150601f19603f3d011682016040523d82523d6000602084013e612547565b606091505b5060008151141561258d576040517f08c379a00000000000000000000000000000000000000000000000000000000081526004016125849061346e565b60405180910390fd5b805181602001fd5b63150b7a0260e01b7bffffffffffffffffffffffffffffffffffffffffffffffffffffffff1916817bffffffffffffffffffffffffffffffffffffffffffffffffffffffff1916149150506125ea565b600190505b949350505050565b600073ffffffffffffffffffffffffffffffffffffffff168273ffffffffffffffffffffffffffffffffffffffff161415612662576040517f08c379a00000000000000000000000000000000000000000000000000000000081526004016126599061360e565b60405180910390fd5b61266b81611927565b156126ab576040517f08c379a00000000000000000000000000000000000000000000000000000000081526004016126a2906134ce565b60405180910390fd5b6126b760008383612342565b6001600360008473ffffffffffffffffffffffffffffffffffffffff1673ffffffffffffffffffffffffffffffffffffffff1681526020019081526020016000206000828254612707919061384d565b92505081905550816002600083815260200190815260200160002060006101000a81548173ffffffffffffffffffffffffffffffffffffffff021916908373ffffffffffffffffffffffffffffffffffffffff160217905550808273ffffffffffffffffffffffffffffffffffffffff16600073ffffffffffffffffffffffffffffffffffffffff167fddf252ad1be2c89b69c2b068fc378daa952ba7f163c4a11628f55a4df523b3ef60405160405180910390a46127c860008383612456565b5050565b505050565b6008805490506009600083815260200190815260200160002081905550600881908060018154018082558091505060019003906000526020600020016000909190919091505550565b60006001612827846112d6565b61283191906138d4565b9050600060076000848152602001908152602001600020549050818114612916576000600660008673ffffffffffffffffffffffffffffffffffffffff1673ffffffffffffffffffffffffffffffffffffffff168152602001908152602001600020600084815260200190815260200160002054905080600660008773ffffffffffffffffffffffffffffffffffffffff1673ffffffffffffffffffffffffffffffffffffffff168152602001908152602001600020600084815260200190815260200160002081905550816007600083815260200190815260200160002081905550505b6007600084815260200190815260200160002060009055600660008573ffffffffffffffffffffffffffffffffffffffff1673ffffffffffffffffffffffffffffffffffffffff16815260200190815260200160002060008381526020019081526020016000206000905550505050565b6000600160088054905061299b91906138d4565b90506000600960008481526020019081526020016000205490506000600883815481106129f1577f4e487b7100000000000000000000000000000000000000000000000000000000600052603260045260246000fd5b906000526020600020015490508060088381548110612a39577f4e487b7100000000000000000000000000000000000000000000000000000000600052603260045260246000fd5b906000526020600020018190555081600960008381526020019081526020016000208190555060096000858152602001908152602001600020600090556008805480612aae577f4e487b7100000000000000000000000000000000000000000000000000000000600052603160045260246000fd5b6001900381819060005260206000200160009055905550505050565b6000612ad5836112d6565b905081600660008573ffffffffffffffffffffffffffffffffffffffff1673ffffffffffffffffffffffffffffffffffffffff168152602001908152602001600020600083815260200190815260200160002081905550806007600084815260200190815260200160002081905550505050565b6000808273ffffffffffffffffffffffffffffffffffffffff163b119050919050565b6000612b7f612b7a846137ce565b6137a9565b905082815260208101848484011115612b9757600080fd5b612ba28482856139a0565b509392505050565b600081359050612bb9816141cd565b92915050565b600081359050612bce816141e4565b92915050565b600081519050612be3816141e4565b92915050565b600081359050612bf8816141fb565b92915050565b600081519050612c0d816141fb565b92915050565b600082601f830112612c2457600080fd5b8135612c34848260208601612b6c565b91505092915050565b600081359050612c4c81614212565b92915050565b600060208284031215612c6457600080fd5b6000612c7284828501612baa565b91505092915050565b60008060408385031215612c8e57600080fd5b6000612c9c85828601612baa565b9250506020612cad85828601612baa565b9150509250929050565b600080600060608486031215612ccc57600080fd5b6000612cda86828701612baa565b9350506020612ceb86828701612baa565b9250506040612cfc86828701612c3d565b9150509250925092565b60008060008060808587031215612d1c57600080fd5b6000612d2a87828801612baa565b9450506020612d3b87828801612baa565b9350506040612d4c87828801612c3d565b925050606085013567ffffffffffffffff811115612d6957600080fd5b612d7587828801612c13565b91505092959194509250565b60008060408385031215612d9457600080fd5b6000612da285828601612baa565b9250506020612db385828601612bbf565b9150509250929050565b60008060408385031215612dd057600080fd5b6000612dde85828601612baa565b9250506020612def85828601612c3d565b9150509250929050565b600060208284031215612e0b57600080fd5b6000612e1984828501612bbf565b91505092915050565b600060208284031215612e3457600080fd5b6000612e4284828501612bd4565b91505092915050565b600060208284031215612e5d57600080fd5b6000612e6b84828501612be9565b91505092915050565b600060208284031215612e8657600080fd5b6000612e9484828501612bfe565b91505092915050565b600060208284031215612eaf57600080fd5b6000612ebd84828501612c3d565b91505092915050565b612ecf81613908565b82525050565b612ede8161391a565b82525050565b6000612eef826137ff565b612ef98185613815565b9350612f098185602086016139af565b612f1281613b7b565b840191505092915050565b612f268161397c565b82525050565b6000612f378261380a565b612f418185613831565b9350612f518185602086016139af565b612f5a81613b7b565b840191505092915050565b6000612f708261380a565b612f7a8185613842565b9350612f8a8185602086016139af565b80840191505092915050565b6000612fa3602b83613831565b9150612fae82613b8c565b604082019050919050565b6000612fc6603283613831565b9150612fd182613bdb565b604082019050919050565b6000612fe9602683613831565b9150612ff482613c2a565b604082019050919050565b600061300c602583613831565b915061301782613c79565b604082019050919050565b600061302f601c83613831565b915061303a82613cc8565b602082019050919050565b6000613052602483613831565b915061305d82613cf1565b604082019050919050565b6000613075601983613831565b915061308082613d40565b602082019050919050565b6000613098601c83613831565b91506130a382613d69565b602082019050919050565b60006130bb602c83613831565b91506130c682613d92565b604082019050919050565b60006130de601883613831565b91506130e982613de1565b602082019050919050565b6000613101603883613831565b915061310c82613e0a565b604082019050919050565b6000613124602a83613831565b915061312f82613e59565b604082019050919050565b6000613147602983613831565b915061315282613ea8565b604082019050919050565b600061316a601583613831565b915061317582613ef7565b602082019050919050565b600061318d602083613831565b915061319882613f20565b602082019050919050565b60006131b0601783613831565b91506131bb82613f49565b602082019050919050565b60006131d3602c83613831565b91506131de82613f72565b604082019050919050565b60006131f6601b83613831565b915061320182613fc1565b602082019050919050565b6000613219602083613831565b915061322482613fea565b602082019050919050565b600061323c602f83613831565b915061324782614013565b604082019050919050565b600061325f602183613831565b915061326a82614062565b604082019050919050565b6000613282601a83613831565b915061328d826140b1565b602082019050919050565b60006132a5601983613831565b91506132b0826140da565b602082019050919050565b60006132c8600083613826565b91506132d382614103565b600082019050919050565b60006132eb603183613831565b91506132f682614106565b604082019050919050565b600061330e602c83613831565b915061331982614155565b604082019050919050565b6000613331601d83613831565b915061333c826141a4565b602082019050919050565b61335081613972565b82525050565b60006133628285612f65565b915061336e8284612f65565b91508190509392505050565b6000613385826132bb565b9150819050919050565b60006020820190506133a46000830184612ec6565b92915050565b60006080820190506133bf6000830187612ec6565b6133cc6020830186612ec6565b6133d96040830185613347565b81810360608301526133eb8184612ee4565b905095945050505050565b600060208201905061340b6000830184612ed5565b92915050565b60006020820190506134266000830184612f1d565b92915050565b600060208201905081810360008301526134468184612f2c565b905092915050565b6000602082019050818103600083015261346781612f96565b9050919050565b6000602082019050818103600083015261348781612fb9565b9050919050565b600060208201905081810360008301526134a781612fdc565b9050919050565b600060208201905081810360008301526134c781612fff565b9050919050565b600060208201905081810360008301526134e781613022565b9050919050565b6000602082019050818103600083015261350781613045565b9050919050565b6000602082019050818103600083015261352781613068565b9050919050565b600060208201905081810360008301526135478161308b565b9050919050565b60006020820190508181036000830152613567816130ae565b9050919050565b60006020820190508181036000830152613587816130d1565b9050919050565b600060208201905081810360008301526135a7816130f4565b9050919050565b600060208201905081810360008301526135c781613117565b9050919050565b600060208201905081810360008301526135e78161313a565b9050919050565b600060208201905081810360008301526136078161315d565b9050919050565b6000602082019050818103600083015261362781613180565b9050919050565b60006020820190508181036000830152613647816131a3565b9050919050565b60006020820190508181036000830152613667816131c6565b9050919050565b60006020820190508181036000830152613687816131e9565b9050919050565b600060208201905081810360008301526136a78161320c565b9050919050565b600060208201905081810360008301526136c78161322f565b9050919050565b600060208201905081810360008301526136e781613252565b9050919050565b6000602082019050818103600083015261370781613275565b9050919050565b6000602082019050818103600083015261372781613298565b9050919050565b60006020820190508181036000830152613747816132de565b9050919050565b6000602082019050818103600083015261376781613301565b9050919050565b6000602082019050818103600083015261378781613324565b9050919050565b60006020820190506137a36000830184613347565b92915050565b60006137b36137c4565b90506137bf8282613a14565b919050565b6000604051905090565b600067ffffffffffffffff8211156137e9576137e8613b4c565b5b6137f282613b7b565b9050602081019050919050565b600081519050919050565b600081519050919050565b600082825260208201905092915050565b600081905092915050565b600082825260208201905092915050565b600081905092915050565b600061385882613972565b915061386383613972565b9250827fffffffffffffffffffffffffffffffffffffffffffffffffffffffffffffffff0382111561389857613897613abf565b5b828201905092915050565b60006138ae82613972565b91506138b983613972565b9250826138c9576138c8613aee565b5b828204905092915050565b60006138df82613972565b91506138ea83613972565b9250828210156138fd576138fc613abf565b5b828203905092915050565b600061391382613952565b9050919050565b60008115159050919050565b60007fffffffff0000000000000000000000000000000000000000000000000000000082169050919050565b600073ffffffffffffffffffffffffffffffffffffffff82169050919050565b6000819050919050565b60006139878261398e565b9050919050565b600061399982613952565b9050919050565b82818337600083830152505050565b60005b838110156139cd5780820151818401526020810190506139b2565b838111156139dc576000848401525b50505050565b600060028204905060018216806139fa57607f821691505b60208210811415613a0e57613a0d613b1d565b5b50919050565b613a1d82613b7b565b810181811067ffffffffffffffff82111715613a3c57613a3b613b4c565b5b80604052505050565b6000613a5082613972565b91507fffffffffffffffffffffffffffffffffffffffffffffffffffffffffffffffff821415613a8357613a82613abf565b5b600182019050919050565b6000613a9982613972565b9150613aa483613972565b925082613ab457613ab3613aee565b5b828206905092915050565b7f4e487b7100000000000000000000000000000000000000000000000000000000600052601160045260246000fd5b7f4e487b7100000000000000000000000000000000000000000000000000000000600052601260045260246000fd5b7f4e487b7100000000000000000000000000000000000000000000000000000000600052602260045260246000fd5b7f4e487b7100000000000000000000000000000000000000000000000000000000600052604160045260246000fd5b6000601f19601f8301169050919050565b7f455243373231456e756d657261626c653a206f776e657220696e646578206f7560008201527f74206f6620626f756e6473000000000000000000000000000000000000000000602082015250565b7f4552433732313a207472616e7366657220746f206e6f6e20455243373231526560008201527f63656976657220696d706c656d656e7465720000000000000000000000000000602082015250565b7f4f776e61626c653a206e6577206f776e657220697320746865207a65726f206160008201527f6464726573730000000000000000000000000000000000000000000000000000602082015250565b7f4552433732313a207472616e736665722066726f6d20696e636f72726563742060008201527f6f776e6572000000000000000000000000000000000000000000000000000000602082015250565b7f4552433732313a20746f6b656e20616c7265616479206d696e74656400000000600082015250565b7f4552433732313a207472616e7366657220746f20746865207a65726f2061646460008201527f7265737300000000000000000000000000000000000000000000000000000000602082015250565b7f4552433732313a20617070726f766520746f2063616c6c657200000000000000600082015250565b7f4d6178206e756d626572206f6620746f6b656e73207265616368656400000000600082015250565b7f4552433732313a206f70657261746f7220717565727920666f72206e6f6e657860008201527f697374656e7420746f6b656e0000000000000000000000000000000000000000602082015250565b7f436f6e747261637420637572726e746c79207061757365640000000000000000600082015250565b7f4552433732313a20617070726f76652063616c6c6572206973206e6f74206f7760008201527f6e6572206e6f7220617070726f76656420666f7220616c6c0000000000000000602082015250565b7f4552433732313a2062616c616e636520717565727920666f7220746865207a6560008201527f726f206164647265737300000000000000000000000000000000000000000000602082015250565b7f4552433732313a206f776e657220717565727920666f72206e6f6e657869737460008201527f656e7420746f6b656e0000000000000000000000000000000000000000000000602082015250565b7f50726573616c6520686173206e6f7420656e6465640000000000000000000000600082015250565b7f4552433732313a206d696e7420746f20746865207a65726f2061646472657373600082015250565b7f596f7520617265206e6f742077686974656c6973746564000000000000000000600082015250565b7f4552433732313a20617070726f76656420717565727920666f72206e6f6e657860008201527f697374656e7420746f6b656e0000000000000000000000000000000000000000602082015250565b7f50726573616c6520686173206e6f742073746172746564207965740000000000600082015250565b7f4f776e61626c653a2063616c6c6572206973206e6f7420746865206f776e6572600082015250565b7f4552433732314d657461646174613a2055524920717565727920666f72206e6f60008201527f6e6578697374656e7420746f6b656e0000000000000000000000000000000000602082015250565b7f4552433732313a20617070726f76616c20746f2063757272656e74206f776e6560008201527f7200000000000000000000000000000000000000000000000000000000000000602082015250565b7f457863656564206d6178696d756d2043727970746f2044657673000000000000600082015250565b7f45746865722073656e74206973206e6f7420636f727265637400000000000000600082015250565b50565b7f4552433732313a207472616e736665722063616c6c6572206973206e6f74206f60008201527f776e6572206e6f7220617070726f766564000000000000000000000000000000602082015250565b7f455243373231456e756d657261626c653a20676c6f62616c20696e646578206f60008201527f7574206f6620626f756e64730000000000000000000000000000000000000000602082015250565b7f4661696c656420746f2073656e6420657468657220746f206f776e6572000000600082015250565b6141d681613908565b81146141e157600080fd5b50565b6141ed8161391a565b81146141f857600080fd5b50565b61420481613926565b811461420f57600080fd5b50565b61421b81613972565b811461422657600080fd5b5056fea26469706673582212201ca5517f9b2ba49109132949705a582bcdeff48162be8e70dd931f93c52ceb9b64736f6c63430008040033",
  "linkReferences": {},
  "deployedLinkReferences": {}
}